{
  "contractName": "DecryptedKeyStorage",
  "abi": [
    {
      "inputs": [
        {
          "internalType": "uint256",
          "name": "",
          "type": "uint256"
        }
      ],
      "name": "decryptedKeys",
      "outputs": [
        {
          "internalType": "string",
          "name": "",
          "type": "string"
        }
      ],
      "stateMutability": "view",
      "type": "function",
      "constant": true
    },
    {
      "inputs": [
        {
          "internalType": "uint256",
          "name": "index",
          "type": "uint256"
        },
        {
          "internalType": "string",
          "name": "key",
          "type": "string"
        }
      ],
      "name": "addDecryptedKey",
      "outputs": [],
      "stateMutability": "nonpayable",
      "type": "function"
    },
    {
      "inputs": [
        {
          "internalType": "uint256",
          "name": "index",
          "type": "uint256"
        }
      ],
      "name": "getDecryptedKey",
      "outputs": [
        {
          "internalType": "string",
          "name": "",
          "type": "string"
        }
      ],
      "stateMutability": "view",
      "type": "function",
      "constant": true
    }
  ],
  "bytecode": "0x608060405234801561001057600080fd5b506107f8806100206000396000f3fe608060405234801561001057600080fd5b50600436106100415760003560e01c8063106902731461004657806352dbaae414610062578063f52f385614610092575b600080fd5b610060600480360381019061005b91906103ba565b6100c2565b005b61007c60048036038101906100779190610416565b6100e6565b60405161008991906104c2565b60405180910390f35b6100ac60048036038101906100a79190610416565b610186565b6040516100b991906104c2565b60405180910390f35b8060008084815260200190815260200160002090816100e191906106f0565b505050565b6000602052806000526040600020600091509050805461010590610513565b80601f016020809104026020016040519081016040528092919081815260200182805461013190610513565b801561017e5780601f106101535761010080835404028352916020019161017e565b820191906000526020600020905b81548152906001019060200180831161016157829003601f168201915b505050505081565b606060008083815260200190815260200160002080546101a590610513565b80601f01602080910402602001604051908101604052809291908181526020018280546101d190610513565b801561021e5780601f106101f35761010080835404028352916020019161021e565b820191906000526020600020905b81548152906001019060200180831161020157829003601f168201915b50505050509050919050565b6000604051905090565b600080fd5b600080fd5b6000819050919050565b6102518161023e565b811461025c57600080fd5b50565b60008135905061026e81610248565b92915050565b600080fd5b600080fd5b6000601f19601f8301169050919050565b7f4e487b7100000000000000000000000000000000000000000000000000000000600052604160045260246000fd5b6102c78261027e565b810181811067ffffffffffffffff821117156102e6576102e561028f565b5b80604052505050565b60006102f961022a565b905061030582826102be565b919050565b600067ffffffffffffffff8211156103255761032461028f565b5b61032e8261027e565b9050602081019050919050565b82818337600083830152505050565b600061035d6103588461030a565b6102ef565b90508281526020810184848401111561037957610378610279565b5b61038484828561033b565b509392505050565b600082601f8301126103a1576103a0610274565b5b81356103b184826020860161034a565b91505092915050565b600080604083850312156103d1576103d0610234565b5b60006103df8582860161025f565b925050602083013567ffffffffffffffff811115610400576103ff610239565b5b61040c8582860161038c565b9150509250929050565b60006020828403121561042c5761042b610234565b5b600061043a8482850161025f565b91505092915050565b600081519050919050565b600082825260208201905092915050565b60005b8381101561047d578082015181840152602081019050610462565b60008484015250505050565b600061049482610443565b61049e818561044e565b93506104ae81856020860161045f565b6104b78161027e565b840191505092915050565b600060208201905081810360008301526104dc8184610489565b905092915050565b7f4e487b7100000000000000000000000000000000000000000000000000000000600052602260045260246000fd5b6000600282049050600182168061052b57607f821691505b60208210810361053e5761053d6104e4565b5b50919050565b60008190508160005260206000209050919050565b60006020601f8301049050919050565b600082821b905092915050565b6000600883026105a67fffffffffffffffffffffffffffffffffffffffffffffffffffffffffffffffff82610569565b6105b08683610569565b95508019841693508086168417925050509392505050565b6000819050919050565b60006105ed6105e86105e38461023e565b6105c8565b61023e565b9050919050565b6000819050919050565b610607836105d2565b61061b610613826105f4565b848454610576565b825550505050565b600090565b610630610623565b61063b8184846105fe565b505050565b5b8181101561065f57610654600082610628565b600181019050610641565b5050565b601f8211156106a45761067581610544565b61067e84610559565b8101602085101561068d578190505b6106a161069985610559565b830182610640565b50505b505050565b600082821c905092915050565b60006106c7600019846008026106a9565b1980831691505092915050565b60006106e083836106b6565b9150826002028217905092915050565b6106f982610443565b67ffffffffffffffff8111156107125761071161028f565b5b61071c8254610513565b610727828285610663565b600060209050601f83116001811461075a5760008415610748578287015190505b61075285826106d4565b8655506107ba565b601f19841661076886610544565b60005b828110156107905784890151825560018201915060208501945060208101905061076b565b868310156107ad57848901516107a9601f8916826106b6565b8355505b6001600288020188555050505b50505050505056fea264697066735822122031f737244603da41aa8d2fa82b2fa781378ccfd0ce865c61417ce2eeacbe6f7d64736f6c63430008130033",
  "immutableReferences": {},
  "source": "// SPDX-License-Identifier: MIT\npragma solidity >=0.4.22 <0.9.0;\n\ncontract DecryptedKeyStorage {\n    // Mapping to store the decrypted key by an ID\n    mapping(uint => string) public decryptedKeys;\n\n    function addDecryptedKey(uint index, string memory key) public {\n        decryptedKeys[index] = key;\n    }\n\n    function getDecryptedKey(uint index) public view returns (string memory) {\n        return decryptedKeys[index];\n    }\n}\n",
  "sourcePath": "D:\\SIH new blockchain\\restart\\contracts\\DecryptedKeyStorage.sol",
  "compiler": {
    "name": "solc",
    "version": "0.8.19+commit.7dd6d404.Emscripten.clang"
  },
  "schemaVersion": "3.4.15",
  "updatedAt": "2024-09-08T16:16:48.466Z",
  "networkType": "ethereum",
  "devdoc": {
    "kind": "dev",
    "methods": {},
    "version": 1
  },
  "userdoc": {
    "kind": "user",
    "methods": {},
    "version": 1
  }
}