{
  "contractName": "DoctorRegistration",
  "abi": [
    {
      "anonymous": false,
      "inputs": [
        {
          "indexed": false,
          "internalType": "uint256",
          "name": "id",
          "type": "uint256"
        },
        {
          "indexed": false,
          "internalType": "string",
          "name": "name",
          "type": "string"
        },
        {
          "indexed": false,
          "internalType": "string",
          "name": "location",
          "type": "string"
        },
        {
          "indexed": false,
          "internalType": "string",
          "name": "licenseNumber",
          "type": "string"
        }
      ],
      "name": "DoctorRegistered",
      "type": "event"
    },
    {
      "anonymous": false,
      "inputs": [
        {
          "indexed": false,
          "internalType": "uint256",
          "name": "id",
          "type": "uint256"
        },
        {
          "indexed": false,
          "internalType": "string[]",
          "name": "specializations",
          "type": "string[]"
        }
      ],
      "name": "SpecializationsUpdated",
      "type": "event"
    },
    {
      "inputs": [
        {
          "internalType": "uint256",
          "name": "_id",
          "type": "uint256"
        },
        {
          "internalType": "string",
          "name": "_name",
          "type": "string"
        },
        {
          "internalType": "string",
          "name": "_location",
          "type": "string"
        },
        {
          "internalType": "string",
          "name": "_licenseNumber",
          "type": "string"
        },
        {
          "internalType": "string[]",
          "name": "_specializations",
          "type": "string[]"
        }
      ],
      "name": "registerDoctor",
      "outputs": [],
      "stateMutability": "nonpayable",
      "type": "function"
    },
    {
      "inputs": [
        {
          "internalType": "uint256",
          "name": "_id",
          "type": "uint256"
        },
        {
          "internalType": "string[]",
          "name": "_newSpecializations",
          "type": "string[]"
        }
      ],
      "name": "updateSpecializations",
      "outputs": [],
      "stateMutability": "nonpayable",
      "type": "function"
    },
    {
      "inputs": [
        {
          "internalType": "uint256",
          "name": "_id",
          "type": "uint256"
        }
      ],
      "name": "getDoctor",
      "outputs": [
        {
          "internalType": "uint256",
          "name": "id",
          "type": "uint256"
        },
        {
          "internalType": "string",
          "name": "name",
          "type": "string"
        },
        {
          "internalType": "string",
          "name": "location",
          "type": "string"
        },
        {
          "internalType": "string",
          "name": "licenseNumber",
          "type": "string"
        },
        {
          "internalType": "string[]",
          "name": "specializations",
          "type": "string[]"
        }
      ],
      "stateMutability": "view",
      "type": "function",
      "constant": true
    },
    {
      "inputs": [],
      "name": "getAllDoctors",
      "outputs": [
        {
          "components": [
            {
              "internalType": "uint256",
              "name": "id",
              "type": "uint256"
            },
            {
              "internalType": "string",
              "name": "name",
              "type": "string"
            },
            {
              "internalType": "string",
              "name": "location",
              "type": "string"
            },
            {
              "internalType": "string",
              "name": "licenseNumber",
              "type": "string"
            },
            {
              "internalType": "string[]",
              "name": "specializations",
              "type": "string[]"
            },
            {
              "internalType": "bool",
              "name": "isRegistered",
              "type": "bool"
            }
          ],
          "internalType": "struct DoctorRegistration.Doctor[]",
          "name": "",
          "type": "tuple[]"
        }
      ],
      "stateMutability": "view",
      "type": "function",
      "constant": true
    },
    {
      "inputs": [
        {
          "internalType": "string",
          "name": "_specialization",
          "type": "string"
        }
      ],
      "name": "getDoctorsBySpecialization",
      "outputs": [
        {
          "components": [
            {
              "internalType": "uint256",
              "name": "id",
              "type": "uint256"
            },
            {
              "internalType": "string",
              "name": "name",
              "type": "string"
            },
            {
              "internalType": "string",
              "name": "location",
              "type": "string"
            },
            {
              "internalType": "string",
              "name": "licenseNumber",
              "type": "string"
            },
            {
              "internalType": "string[]",
              "name": "specializations",
              "type": "string[]"
            },
            {
              "internalType": "bool",
              "name": "isRegistered",
              "type": "bool"
            }
          ],
          "internalType": "struct DoctorRegistration.Doctor[]",
          "name": "",
          "type": "tuple[]"
        }
      ],
      "stateMutability": "view",
      "type": "function",
      "constant": true
    },
    {
      "inputs": [
        {
          "internalType": "string",
          "name": "_location",
          "type": "string"
        }
      ],
      "name": "getDoctorsByLocation",
      "outputs": [
        {
          "components": [
            {
              "internalType": "uint256",
              "name": "id",
              "type": "uint256"
            },
            {
              "internalType": "string",
              "name": "name",
              "type": "string"
            },
            {
              "internalType": "string",
              "name": "location",
              "type": "string"
            },
            {
              "internalType": "string",
              "name": "licenseNumber",
              "type": "string"
            },
            {
              "internalType": "string[]",
              "name": "specializations",
              "type": "string[]"
            },
            {
              "internalType": "bool",
              "name": "isRegistered",
              "type": "bool"
            }
          ],
          "internalType": "struct DoctorRegistration.Doctor[]",
          "name": "",
          "type": "tuple[]"
        }
      ],
      "stateMutability": "view",
      "type": "function",
      "constant": true
    }
  ],
  "bytecode": "0x608060405234801561001057600080fd5b50611e80806100206000396000f3fe608060405234801561001057600080fd5b50600436106100625760003560e01c80630d51320a146100675780632ecf8c821461009057806360dda842146100a557806369b0a72d146100b8578063c241cdd7146100dc578063f0d95090146100ef575b600080fd5b61007a6100753660046118b0565b6100f7565b6040516100879190611b2c565b60405180910390f35b6100a361009e366004611903565b61060c565b005b6100a36100b3366004611948565b6106a7565b6100cb6100c63660046118eb565b61081e565b604051610087959493929190611d0d565b61007a6100ea3660046118b0565b610b49565b61007a611295565b6001546060906000805b828110156101bc578460405160200161011a9190611a75565b604051602081830303815290604052805190602001206000806001848154811061015457634e487b7160e01b600052603260045260246000fd5b906000526020600020015481526020019081526020016000206002016040516020016101809190611a91565b6040516020818303038152906040528051906020012014156101aa57816101a681611e0d565b9250505b806101b481611e0d565b915050610101565b5060008167ffffffffffffffff8111156101e657634e487b7160e01b600052604160045260246000fd5b60405190808252806020026020018201604052801561021f57816020015b61020c611644565b8152602001906001900390816102045790505b5090506000805b84811015610601578660405160200161023f9190611a75565b604051602081830303815290604052805190602001206000806001848154811061027957634e487b7160e01b600052603260045260246000fd5b906000526020600020015481526020019081526020016000206002016040516020016102a59190611a91565b6040516020818303038152906040528051906020012014156105ef57600080600183815481106102e557634e487b7160e01b600052603260045260246000fd5b906000526020600020015481526020019081526020016000206040518060c00160405290816000820154815260200160018201805461032390611dd2565b80601f016020809104026020016040519081016040528092919081815260200182805461034f90611dd2565b801561039c5780601f106103715761010080835404028352916020019161039c565b820191906000526020600020905b81548152906001019060200180831161037f57829003601f168201915b505050505081526020016002820180546103b590611dd2565b80601f01602080910402602001604051908101604052809291908181526020018280546103e190611dd2565b801561042e5780601f106104035761010080835404028352916020019161042e565b820191906000526020600020905b81548152906001019060200180831161041157829003601f168201915b5050505050815260200160038201805461044790611dd2565b80601f016020809104026020016040519081016040528092919081815260200182805461047390611dd2565b80156104c05780601f10610495576101008083540402835291602001916104c0565b820191906000526020600020905b8154815290600101906020018083116104a357829003601f168201915b5050505050815260200160048201805480602002602001604051908101604052809291908181526020016000905b8282101561059a57838290600052602060002001805461050d90611dd2565b80601f016020809104026020016040519081016040528092919081815260200182805461053990611dd2565b80156105865780601f1061055b57610100808354040283529160200191610586565b820191906000526020600020905b81548152906001019060200180831161056957829003601f168201915b5050505050815260200190600101906104ee565b505050908252506005919091015460ff16151560209091015283518490849081106105d557634e487b7160e01b600052603260045260246000fd5b602002602001018190525081806105eb90611e0d565b9250505b806105f981611e0d565b915050610226565b509095945050505050565b60008281526020819052604090206005015460ff166106465760405162461bcd60e51b815260040161063d90611c7a565b60405180910390fd5b60008281526020818152604090912082516106699260049092019184019061167c565b507f942af2909f9c1c7b70816deb5ccfd495c66adaa89ce228e836fbb55914299bd1828260405161069b929190611caa565b60405180910390a15050565b60008581526020819052604090206005015460ff16156106d95760405162461bcd60e51b815260040161063d90611c43565b6040805160c08101825286815260208082018781528284018790526060830186905260808301859052600160a0840181905260008a815280845294909420835181559051805193949193610735939285019291909101906116d9565b50604082015180516107519160028401916020909101906116d9565b506060820151805161076d9160038401916020909101906116d9565b506080820151805161078991600484019160209091019061167c565b5060a091909101516005909101805460ff19169115159190911790556001805480820182556000919091527fb10e2d527612073b26eecdfd717e6a320cf44b4afac2b0732d9fcbe2b7fa0cf6018590556040517f8a2d2933c9fcbc820a4a63bb0cfbc593fbed33c5ce05aec6bfc260989780fc0e9061080f908790879087908790611cc3565b60405180910390a15050505050565b60008181526020819052604081206005015460609081908190819060ff166108585760405162461bcd60e51b815260040161063d90611c7a565b60008060008881526020019081526020016000206040518060c00160405290816000820154815260200160018201805461089190611dd2565b80601f01602080910402602001604051908101604052809291908181526020018280546108bd90611dd2565b801561090a5780601f106108df5761010080835404028352916020019161090a565b820191906000526020600020905b8154815290600101906020018083116108ed57829003601f168201915b5050505050815260200160028201805461092390611dd2565b80601f016020809104026020016040519081016040528092919081815260200182805461094f90611dd2565b801561099c5780601f106109715761010080835404028352916020019161099c565b820191906000526020600020905b81548152906001019060200180831161097f57829003601f168201915b505050505081526020016003820180546109b590611dd2565b80601f01602080910402602001604051908101604052809291908181526020018280546109e190611dd2565b8015610a2e5780601f10610a0357610100808354040283529160200191610a2e565b820191906000526020600020905b815481529060010190602001808311610a1157829003601f168201915b5050505050815260200160048201805480602002602001604051908101604052809291908181526020016000905b82821015610b08578382906000526020600020018054610a7b90611dd2565b80601f0160208091040260200160405190810160405280929190818152602001828054610aa790611dd2565b8015610af45780601f10610ac957610100808354040283529160200191610af4565b820191906000526020600020905b815481529060010190602001808311610ad757829003601f168201915b505050505081526020019060010190610a5c565b505050908252506005919091015460ff16151560209182015281519082015160408301516060840151608090940151929b919a509850919650945092505050565b6001546060906000805b82811015610d2f57600080600060018481548110610b8157634e487b7160e01b600052603260045260246000fd5b90600052602060002001548152602001908152602001600020600401805480602002602001604051908101604052809291908181526020016000905b82821015610c69578382906000526020600020018054610bdc90611dd2565b80601f0160208091040260200160405190810160405280929190818152602001828054610c0890611dd2565b8015610c555780601f10610c2a57610100808354040283529160200191610c55565b820191906000526020600020905b815481529060010190602001808311610c3857829003601f168201915b505050505081526020019060010190610bbd565b50505050905060005b8151811015610d1a5786604051602001610c8c9190611a75565b60405160208183030381529060405280519060200120828281518110610cc257634e487b7160e01b600052603260045260246000fd5b6020026020010151604051602001610cda9190611a75565b604051602081830303815290604052805190602001201415610d085783610d0081611e0d565b945050610d1a565b80610d1281611e0d565b915050610c72565b50508080610d2790611e0d565b915050610b53565b5060008167ffffffffffffffff811115610d5957634e487b7160e01b600052604160045260246000fd5b604051908082528060200260200182016040528015610d9257816020015b610d7f611644565b815260200190600190039081610d775790505b5090506000805b8481101561060157600080600060018481548110610dc757634e487b7160e01b600052603260045260246000fd5b90600052602060002001548152602001908152602001600020600401805480602002602001604051908101604052809291908181526020016000905b82821015610eaf578382906000526020600020018054610e2290611dd2565b80601f0160208091040260200160405190810160405280929190818152602001828054610e4e90611dd2565b8015610e9b5780601f10610e7057610100808354040283529160200191610e9b565b820191906000526020600020905b815481529060010190602001808311610e7e57829003601f168201915b505050505081526020019060010190610e03565b50505050905060005b81518110156112805788604051602001610ed29190611a75565b60405160208183030381529060405280519060200120828281518110610f0857634e487b7160e01b600052603260045260246000fd5b6020026020010151604051602001610f209190611a75565b60405160208183030381529060405280519060200120141561126e5760008060018581548110610f6057634e487b7160e01b600052603260045260246000fd5b906000526020600020015481526020019081526020016000206040518060c001604052908160008201548152602001600182018054610f9e90611dd2565b80601f0160208091040260200160405190810160405280929190818152602001828054610fca90611dd2565b80156110175780601f10610fec57610100808354040283529160200191611017565b820191906000526020600020905b815481529060010190602001808311610ffa57829003601f168201915b5050505050815260200160028201805461103090611dd2565b80601f016020809104026020016040519081016040528092919081815260200182805461105c90611dd2565b80156110a95780601f1061107e576101008083540402835291602001916110a9565b820191906000526020600020905b81548152906001019060200180831161108c57829003601f168201915b505050505081526020016003820180546110c290611dd2565b80601f01602080910402602001604051908101604052809291908181526020018280546110ee90611dd2565b801561113b5780601f106111105761010080835404028352916020019161113b565b820191906000526020600020905b81548152906001019060200180831161111e57829003601f168201915b5050505050815260200160048201805480602002602001604051908101604052809291908181526020016000905b8282101561121557838290600052602060002001805461118890611dd2565b80601f01602080910402602001604051908101604052809291908181526020018280546111b490611dd2565b80156112015780601f106111d657610100808354040283529160200191611201565b820191906000526020600020905b8154815290600101906020018083116111e457829003601f168201915b505050505081526020019060010190611169565b505050908252506005919091015460ff161515602090910152855186908690811061125057634e487b7160e01b600052603260045260246000fd5b6020026020010181905250838061126690611e0d565b945050611280565b8061127881611e0d565b915050610eb8565b5050808061128d90611e0d565b915050610d99565b60015460609060008167ffffffffffffffff8111156112c457634e487b7160e01b600052604160045260246000fd5b6040519080825280602002602001820160405280156112fd57816020015b6112ea611644565b8152602001906001900390816112e25790505b50905060005b8281101561163d576000806001838154811061132f57634e487b7160e01b600052603260045260246000fd5b906000526020600020015481526020019081526020016000206040518060c00160405290816000820154815260200160018201805461136d90611dd2565b80601f016020809104026020016040519081016040528092919081815260200182805461139990611dd2565b80156113e65780601f106113bb576101008083540402835291602001916113e6565b820191906000526020600020905b8154815290600101906020018083116113c957829003601f168201915b505050505081526020016002820180546113ff90611dd2565b80601f016020809104026020016040519081016040528092919081815260200182805461142b90611dd2565b80156114785780601f1061144d57610100808354040283529160200191611478565b820191906000526020600020905b81548152906001019060200180831161145b57829003601f168201915b5050505050815260200160038201805461149190611dd2565b80601f01602080910402602001604051908101604052809291908181526020018280546114bd90611dd2565b801561150a5780601f106114df5761010080835404028352916020019161150a565b820191906000526020600020905b8154815290600101906020018083116114ed57829003601f168201915b5050505050815260200160048201805480602002602001604051908101604052809291908181526020016000905b828210156115e457838290600052602060002001805461155790611dd2565b80601f016020809104026020016040519081016040528092919081815260200182805461158390611dd2565b80156115d05780601f106115a5576101008083540402835291602001916115d0565b820191906000526020600020905b8154815290600101906020018083116115b357829003601f168201915b505050505081526020019060010190611538565b505050908252506005919091015460ff161515602090910152825183908390811061161f57634e487b7160e01b600052603260045260246000fd5b6020026020010181905250808061163590611e0d565b915050611303565b5091505090565b6040518060c0016040528060008152602001606081526020016060815260200160608152602001606081526020016000151581525090565b8280548282559060005260206000209081019282156116c9579160200282015b828111156116c957825180516116b99184916020909101906116d9565b509160200191906001019061169c565b506116d5929150611759565b5090565b8280546116e590611dd2565b90600052602060002090601f016020900481019282611707576000855561174d565b82601f1061172057805160ff191683800117855561174d565b8280016001018555821561174d579182015b8281111561174d578251825591602001919060010190611732565b506116d5929150611776565b808211156116d557600061176d828261178b565b50600101611759565b5b808211156116d55760008155600101611777565b50805461179790611dd2565b6000825580601f106117a957506117c7565b601f0160209004906000526020600020908101906117c79190611776565b50565b600082601f8301126117da578081fd5b8135602067ffffffffffffffff8211156117f6576117f6611e34565b6118038182840201611d6c565b82815281810190858301855b8581101561183857611826898684358b0101611845565b8452928401929084019060010161180f565b5090979650505050505050565b600082601f830112611855578081fd5b813567ffffffffffffffff81111561186f5761186f611e34565b611882601f8201601f1916602001611d6c565b818152846020838601011115611896578283fd5b816020850160208301379081016020019190915292915050565b6000602082840312156118c1578081fd5b813567ffffffffffffffff8111156118d7578182fd5b6118e384828501611845565b949350505050565b6000602082840312156118fc578081fd5b5035919050565b60008060408385031215611915578081fd5b82359150602083013567ffffffffffffffff811115611932578182fd5b61193e858286016117ca565b9150509250929050565b600080600080600060a0868803121561195f578081fd5b85359450602086013567ffffffffffffffff8082111561197d578283fd5b61198989838a01611845565b9550604088013591508082111561199e578283fd5b6119aa89838a01611845565b945060608801359150808211156119bf578283fd5b6119cb89838a01611845565b935060808801359150808211156119e0578283fd5b506119ed888289016117ca565b9150509295509295909350565b60008282518085526020808601955080818302840101818601855b8481101561183857601f19868403018952611a31838351611a49565b98840198925090830190600101611a15565b15159052565b60008151808452611a61816020860160208601611da2565b601f01601f19169290920160200192915050565b60008251611a87818460208701611da2565b9190910192915050565b8154600090819060028104600180831680611aad57607f831692505b6020808410821415611acd57634e487b7160e01b87526022600452602487fd5b818015611ae15760018114611af257611b1e565b60ff19861689528489019650611b1e565b611afb8a611d96565b885b86811015611b165781548b820152908501908301611afd565b505084890196505b509498975050505050505050565b60208082528251828201819052600091906040908185019080840286018301878501865b83811015611c3557603f19898403018552815160c08151855288820151818a870152611b7e82870182611a49565b9150508782015185820389870152611b968282611a49565b91505060608083015186830382880152611bb08382611a49565b608085810151898303918a019190915280518083529194508c850193508c0191508b810284018c018d5b82811015611c0857601f19868303018552611bf6828551611a49565b948e0194938e01939150600101611bda565b5060a095860151959450611c1e89860187611a43565b998c01999750505093890193505050600101611b50565b509098975050505050505050565b6020808252601a908201527f446f63746f7220616c726561647920726567697374657265642e000000000000604082015260600190565b6020808252601690820152752237b1ba37b9103737ba103932b3b4b9ba32b932b21760511b604082015260600190565b6000838252604060208301526118e360408301846119fa565b600085825260806020830152611cdc6080830186611a49565b8281036040840152611cee8186611a49565b90508281036060840152611d028185611a49565b979650505050505050565b600086825260a06020830152611d2660a0830187611a49565b8281036040840152611d388187611a49565b90508281036060840152611d4c8186611a49565b90508281036080840152611d6081856119fa565b98975050505050505050565b60405181810167ffffffffffffffff81118282101715611d8e57611d8e611e34565b604052919050565b60009081526020902090565b60005b83811015611dbd578181015183820152602001611da5565b83811115611dcc576000848401525b50505050565b600281046001821680611de657607f821691505b60208210811415611e0757634e487b7160e01b600052602260045260246000fd5b50919050565b6000600019821415611e2d57634e487b7160e01b81526011600452602481fd5b5060010190565b634e487b7160e01b600052604160045260246000fdfea2646970667358221220cf15fe603a7ca501ca520a6684bb10881119b9e289436c489c4e177fdec7841464736f6c63430008000033",
  "immutableReferences": {},
  "source": "// SPDX-License-Identifier: MIT\npragma solidity ^0.8.0;\n\ncontract DoctorRegistration {\n    // Structure to store doctor details\n    struct Doctor {\n        uint256 id; // Doctor's unique ID\n        string name; // Doctor's name\n        string location; // Location of the doctor\n        string licenseNumber; // License number of the doctor\n        string[] specializations; // List of specializations\n        bool isRegistered; // Flag to check if the doctor is registered\n    }\n\n    // Mapping from doctor ID to Doctor struct\n    mapping(uint256 => Doctor) private doctors;\n\n    // Array to keep track of all registered doctor IDs\n    uint256[] private doctorIds;\n\n    // Event emitted when a new doctor is registered\n    event DoctorRegistered(uint256 id, string name, string location, string licenseNumber);\n\n    // Event emitted when a doctor's specializations are updated\n    event SpecializationsUpdated(uint256 id, string[] specializations);\n\n    // Function to register a new doctor\n    function registerDoctor(\n        uint256 _id,\n        string memory _name,\n        string memory _location,\n        string memory _licenseNumber,\n        string[] memory _specializations\n    ) public {\n        require(!doctors[_id].isRegistered, \"Doctor already registered.\");\n\n        // Store the doctor data\n        doctors[_id] = Doctor({\n            id: _id,\n            name: _name,\n            location: _location,\n            licenseNumber: _licenseNumber,\n            specializations: _specializations,\n            isRegistered: true\n        });\n\n        // Add doctor ID to the list of registered doctors\n        doctorIds.push(_id);\n\n        emit DoctorRegistered(_id, _name, _location, _licenseNumber);\n    }\n\n    // Function to update a doctor's specializations\n    function updateSpecializations(uint256 _id, string[] memory _newSpecializations) public {\n        require(doctors[_id].isRegistered, \"Doctor not registered.\");\n\n        // Update the specializations field\n        doctors[_id].specializations = _newSpecializations;\n\n        emit SpecializationsUpdated(_id, _newSpecializations);\n    }\n\n    // Function to get doctor details\n    function getDoctor(uint256 _id) public view returns (\n        uint256 id,\n        string memory name,\n        string memory location,\n        string memory licenseNumber,\n        string[] memory specializations\n    ) {\n        require(doctors[_id].isRegistered, \"Doctor not registered.\");\n\n        Doctor memory doctor = doctors[_id];\n\n        return (\n            doctor.id,\n            doctor.name,\n            doctor.location,\n            doctor.licenseNumber,\n            doctor.specializations\n        );\n    }\n\n    // Function to get all registered doctors\n    function getAllDoctors() public view returns (Doctor[] memory) {\n        uint256 totalDoctors = doctorIds.length;\n        Doctor[] memory allDoctors = new Doctor[](totalDoctors);\n\n        for (uint256 i = 0; i < totalDoctors; i++) {\n            allDoctors[i] = doctors[doctorIds[i]];\n        }\n\n        return allDoctors;\n    }\n\n    // Function to get doctors by specialization\n    function getDoctorsBySpecialization(string memory _specialization) public view returns (Doctor[] memory) {\n        uint256 totalDoctors = doctorIds.length;\n        uint256 count = 0;\n\n        // First, count the doctors with the given specialization\n        for (uint256 i = 0; i < totalDoctors; i++) {\n            string[] memory specializations = doctors[doctorIds[i]].specializations;\n            for (uint256 j = 0; j < specializations.length; j++) {\n                if (keccak256(abi.encodePacked(specializations[j])) == keccak256(abi.encodePacked(_specialization))) {\n                    count++;\n                    break;\n                }\n            }\n        }\n\n        // Create a temporary array to store the filtered doctors\n        Doctor[] memory filteredDoctors = new Doctor[](count);\n        uint256 index = 0;\n\n        // Fill the filtered array with doctors having the given specialization\n        for (uint256 i = 0; i < totalDoctors; i++) {\n            string[] memory specializations = doctors[doctorIds[i]].specializations;\n            for (uint256 j = 0; j < specializations.length; j++) {\n                if (keccak256(abi.encodePacked(specializations[j])) == keccak256(abi.encodePacked(_specialization))) {\n                    filteredDoctors[index] = doctors[doctorIds[i]];\n                    index++;\n                    break;\n                }\n            }\n        }\n\n        return filteredDoctors;\n    }\n\n    // Function to get doctors by location\n    function getDoctorsByLocation(string memory _location) public view returns (Doctor[] memory) {\n        uint256 totalDoctors = doctorIds.length;\n        uint256 count = 0;\n\n        // First, count the doctors with the given location\n        for (uint256 i = 0; i < totalDoctors; i++) {\n            if (keccak256(abi.encodePacked(doctors[doctorIds[i]].location)) == keccak256(abi.encodePacked(_location))) {\n                count++;\n            }\n        }\n\n        // Create a temporary array to store the filtered doctors\n        Doctor[] memory filteredDoctors = new Doctor[](count);\n        uint256 index = 0;\n\n        // Fill the filtered array with doctors having the given location\n        for (uint256 i = 0; i < totalDoctors; i++) {\n            if (keccak256(abi.encodePacked(doctors[doctorIds[i]].location)) == keccak256(abi.encodePacked(_location))) {\n                filteredDoctors[index] = doctors[doctorIds[i]];\n                index++;\n            }\n        }\n\n        return filteredDoctors;\n    }\n}\n",
  "sourcePath": "/run/media/vedansh/nvme0n1p5/sih-hackathon/contracts/DoctorRegistration.sol",
  "compiler": {
    "name": "solc",
    "version": "0.8.0+commit.c7dfd78e.Emscripten.clang"
  },
  "schemaVersion": "3.4.16",
  "updatedAt": "2024-09-08T20:38:10.113Z",
  "networkType": "ethereum",
  "devdoc": {
    "kind": "dev",
    "methods": {},
    "version": 1
  },
  "userdoc": {
    "kind": "user",
    "methods": {},
    "version": 1
  }
}