{
  "contractName": "HospitalRegistration",
  "abi": [
    {
      "anonymous": false,
      "inputs": [
        {
          "indexed": false,
          "internalType": "uint256",
          "name": "id",
          "type": "uint256"
        },
        {
          "indexed": false,
          "internalType": "string",
          "name": "name",
          "type": "string"
        },
        {
          "indexed": false,
          "internalType": "string",
          "name": "location",
          "type": "string"
        },
        {
          "indexed": false,
          "internalType": "string",
          "name": "coordinates",
          "type": "string"
        },
        {
          "indexed": false,
          "internalType": "string",
          "name": "licenseNumber",
          "type": "string"
        }
      ],
      "name": "HospitalRegistered",
      "type": "event"
    },
    {
      "inputs": [
        {
          "internalType": "uint256",
          "name": "",
          "type": "uint256"
        }
      ],
      "name": "hospitalIds",
      "outputs": [
        {
          "internalType": "uint256",
          "name": "",
          "type": "uint256"
        }
      ],
      "stateMutability": "view",
      "type": "function",
      "constant": true
    },
    {
      "inputs": [
        {
          "internalType": "uint256",
          "name": "",
          "type": "uint256"
        }
      ],
      "name": "hospitals",
      "outputs": [
        {
          "internalType": "uint256",
          "name": "id",
          "type": "uint256"
        },
        {
          "internalType": "string",
          "name": "name",
          "type": "string"
        },
        {
          "internalType": "string",
          "name": "location",
          "type": "string"
        },
        {
          "internalType": "string",
          "name": "coordinates",
          "type": "string"
        },
        {
          "internalType": "string",
          "name": "licenseNumber",
          "type": "string"
        }
      ],
      "stateMutability": "view",
      "type": "function",
      "constant": true
    },
    {
      "inputs": [
        {
          "internalType": "uint256",
          "name": "_id",
          "type": "uint256"
        },
        {
          "internalType": "string",
          "name": "_name",
          "type": "string"
        },
        {
          "internalType": "string",
          "name": "_location",
          "type": "string"
        },
        {
          "internalType": "string",
          "name": "_coordinates",
          "type": "string"
        },
        {
          "internalType": "string",
          "name": "_licenseNumber",
          "type": "string"
        }
      ],
      "name": "registerHospital",
      "outputs": [],
      "stateMutability": "nonpayable",
      "type": "function"
    },
    {
      "inputs": [
        {
          "internalType": "uint256",
          "name": "_id",
          "type": "uint256"
        }
      ],
      "name": "getHospital",
      "outputs": [
        {
          "components": [
            {
              "internalType": "uint256",
              "name": "id",
              "type": "uint256"
            },
            {
              "internalType": "string",
              "name": "name",
              "type": "string"
            },
            {
              "internalType": "string",
              "name": "location",
              "type": "string"
            },
            {
              "internalType": "string",
              "name": "coordinates",
              "type": "string"
            },
            {
              "internalType": "string",
              "name": "licenseNumber",
              "type": "string"
            }
          ],
          "internalType": "struct HospitalRegistration.Hospital",
          "name": "",
          "type": "tuple"
        }
      ],
      "stateMutability": "view",
      "type": "function",
      "constant": true
    },
    {
      "inputs": [],
      "name": "getAllHospitals",
      "outputs": [
        {
          "internalType": "uint256[]",
          "name": "",
          "type": "uint256[]"
        },
        {
          "internalType": "string[]",
          "name": "",
          "type": "string[]"
        },
        {
          "internalType": "string[]",
          "name": "",
          "type": "string[]"
        },
        {
          "internalType": "string[]",
          "name": "",
          "type": "string[]"
        },
        {
          "internalType": "string[]",
          "name": "",
          "type": "string[]"
        }
      ],
      "stateMutability": "view",
      "type": "function",
      "constant": true
    }
  ],
  "bytecode": "0x608060405234801561001057600080fd5b506111d4806100206000396000f3fe608060405234801561001057600080fd5b50600436106100575760003560e01c80634e9f71541461005c57806381dc6fd21461007e578063994f7930146100a2578063a7470f9a146100c2578063cbabcf12146100e2575b600080fd5b6100646100f7565b604051610075959493929190610f75565b60405180910390f35b61009161008c366004610e0a565b610673565b6040516100759594939291906110d3565b6100b56100b0366004610e0a565b6108c2565b60405161007591906110ca565b6100d56100d0366004610e0a565b6108e3565b6040516100759190611042565b6100f56100f0366004610e22565b610b5b565b005b600154606090819081908190819060008167ffffffffffffffff81111561012e57634e487b7160e01b600052604160045260246000fd5b60405190808252806020026020018201604052801561016157816020015b606081526020019060019003908161014c5790505b50905060008267ffffffffffffffff81111561018d57634e487b7160e01b600052604160045260246000fd5b6040519080825280602002602001820160405280156101c057816020015b60608152602001906001900390816101ab5790505b50905060008367ffffffffffffffff8111156101ec57634e487b7160e01b600052604160045260246000fd5b60405190808252806020026020018201604052801561021f57816020015b606081526020019060019003908161020a5790505b50905060008467ffffffffffffffff81111561024b57634e487b7160e01b600052604160045260246000fd5b60405190808252806020026020018201604052801561027e57816020015b60608152602001906001900390816102695790505b50905060005b85811015610604576000600182815481106102af57634e487b7160e01b600052603260045260246000fd5b9060005260206000200154905060008060008381526020019081526020016000206040518060a0016040529081600082015481526020016001820180546102f590611126565b80601f016020809104026020016040519081016040528092919081815260200182805461032190611126565b801561036e5780601f106103435761010080835404028352916020019161036e565b820191906000526020600020905b81548152906001019060200180831161035157829003601f168201915b5050505050815260200160028201805461038790611126565b80601f01602080910402602001604051908101604052809291908181526020018280546103b390611126565b80156104005780601f106103d557610100808354040283529160200191610400565b820191906000526020600020905b8154815290600101906020018083116103e357829003601f168201915b5050505050815260200160038201805461041990611126565b80601f016020809104026020016040519081016040528092919081815260200182805461044590611126565b80156104925780601f1061046757610100808354040283529160200191610492565b820191906000526020600020905b81548152906001019060200180831161047557829003601f168201915b505050505081526020016004820180546104ab90611126565b80601f01602080910402602001604051908101604052809291908181526020018280546104d790611126565b80156105245780601f106104f957610100808354040283529160200191610524565b820191906000526020600020905b81548152906001019060200180831161050757829003601f168201915b5050505050815250509050806020015187848151811061055457634e487b7160e01b600052603260045260246000fd5b6020026020010181905250806040015186848151811061058457634e487b7160e01b600052603260045260246000fd5b602002602001018190525080606001518584815181106105b457634e487b7160e01b600052603260045260246000fd5b602002602001018190525080608001518484815181106105e457634e487b7160e01b600052603260045260246000fd5b6020026020010181905250505080806105fc90611161565b915050610284565b506001848484848480548060200260200160405190810160405280929190818152602001828054801561065657602002820191906000526020600020905b815481526020019060010190808311610642575b505050505094509950995099509950995050505050509091929394565b6000602081905290815260409020805460018201805491929161069590611126565b80601f01602080910402602001604051908101604052809291908181526020018280546106c190611126565b801561070e5780601f106106e35761010080835404028352916020019161070e565b820191906000526020600020905b8154815290600101906020018083116106f157829003601f168201915b50505050509080600201805461072390611126565b80601f016020809104026020016040519081016040528092919081815260200182805461074f90611126565b801561079c5780601f106107715761010080835404028352916020019161079c565b820191906000526020600020905b81548152906001019060200180831161077f57829003601f168201915b5050505050908060030180546107b190611126565b80601f01602080910402602001604051908101604052809291908181526020018280546107dd90611126565b801561082a5780601f106107ff5761010080835404028352916020019161082a565b820191906000526020600020905b81548152906001019060200180831161080d57829003601f168201915b50505050509080600401805461083f90611126565b80601f016020809104026020016040519081016040528092919081815260200182805461086b90611126565b80156108b85780601f1061088d576101008083540402835291602001916108b8565b820191906000526020600020905b81548152906001019060200180831161089b57829003601f168201915b5050505050905085565b600181815481106108d257600080fd5b600091825260209091200154905081565b6108eb610cc1565b60008281526020818152604091829020825160a0810190935280548352600181018054919284019161091c90611126565b80601f016020809104026020016040519081016040528092919081815260200182805461094890611126565b80156109955780601f1061096a57610100808354040283529160200191610995565b820191906000526020600020905b81548152906001019060200180831161097857829003601f168201915b505050505081526020016002820180546109ae90611126565b80601f01602080910402602001604051908101604052809291908181526020018280546109da90611126565b8015610a275780601f106109fc57610100808354040283529160200191610a27565b820191906000526020600020905b815481529060010190602001808311610a0a57829003601f168201915b50505050508152602001600382018054610a4090611126565b80601f0160208091040260200160405190810160405280929190818152602001828054610a6c90611126565b8015610ab95780601f10610a8e57610100808354040283529160200191610ab9565b820191906000526020600020905b815481529060010190602001808311610a9c57829003601f168201915b50505050508152602001600482018054610ad290611126565b80601f0160208091040260200160405190810160405280929190818152602001828054610afe90611126565b8015610b4b5780601f10610b2057610100808354040283529160200191610b4b565b820191906000526020600020905b815481529060010190602001808311610b2e57829003601f168201915b5050505050815250509050919050565b60008581526020819052604090206001018054610b7790611126565b159050610b9f5760405162461bcd60e51b8152600401610b969061100b565b60405180910390fd5b6040805160a081018252868152602080820187815282840187905260608301869052608083018590526000898152808352939093208251815592518051929392610bef9260018501920190610cf0565b5060408201518051610c0b916002840191602090910190610cf0565b5060608201518051610c27916003840191602090910190610cf0565b5060808201518051610c43916004840191602090910190610cf0565b50506001805480820182556000919091527fb10e2d527612073b26eecdfd717e6a320cf44b4afac2b0732d9fcbe2b7fa0cf601869055506040517f120f45a3cf49c87da90c4c015b4014f797c18b7665e553be7034de293388c88790610cb290879087908790879087906110d3565b60405180910390a15050505050565b6040518060a0016040528060008152602001606081526020016060815260200160608152602001606081525090565b828054610cfc90611126565b90600052602060002090601f016020900481019282610d1e5760008555610d64565b82601f10610d3757805160ff1916838001178555610d64565b82800160010185558215610d64579182015b82811115610d64578251825591602001919060010190610d49565b50610d70929150610d74565b5090565b5b80821115610d705760008155600101610d75565b600082601f830112610d99578081fd5b813567ffffffffffffffff80821115610db457610db4611188565b604051601f8301601f191681016020018281118282101715610dd857610dd8611188565b604052828152848301602001861015610def578384fd5b82602086016020830137918201602001929092529392505050565b600060208284031215610e1b578081fd5b5035919050565b600080600080600060a08688031215610e39578081fd5b85359450602086013567ffffffffffffffff80821115610e57578283fd5b610e6389838a01610d89565b95506040880135915080821115610e78578283fd5b610e8489838a01610d89565b94506060880135915080821115610e99578283fd5b610ea589838a01610d89565b93506080880135915080821115610eba578283fd5b50610ec788828901610d89565b9150509295509295909350565b60008282518085526020808601955080818302840101818601855b84811015610f1d57601f19868403018952610f0b838351610f2a565b98840198925090830190600101610eef565b5090979650505050505050565b60008151808452815b81811015610f4f57602081850181015186830182015201610f33565b81811115610f605782602083870101525b50601f01601f19169290920160200192915050565b60a0808252865190820181905260009060209060c0840190828a01845b82811015610fae57815184529284019290840190600101610f92565b50505083810382850152610fc28189610ed4565b9150508281036040840152610fd78187610ed4565b90508281036060840152610feb8186610ed4565b90508281036080840152610fff8185610ed4565b98975050505050505050565b6020808252601c908201527f486f73706974616c20616c726561647920726567697374657265642e00000000604082015260600190565b60006020825282516020830152602083015160a0604084015261106860c0840182610f2a565b90506040840151601f19808584030160608601526110868383610f2a565b925060608601519150808584030160808601526110a38383610f2a565b925060808601519150808584030160a0860152506110c18282610f2a565b95945050505050565b90815260200190565b600086825260a060208301526110ec60a0830187610f2a565b82810360408401526110fe8187610f2a565b905082810360608401526111128186610f2a565b90508281036080840152610fff8185610f2a565b60028104600182168061113a57607f821691505b6020821081141561115b57634e487b7160e01b600052602260045260246000fd5b50919050565b600060001982141561118157634e487b7160e01b81526011600452602481fd5b5060010190565b634e487b7160e01b600052604160045260246000fdfea264697066735822122096c45bbb12f4f9dcb5efb423675fd3eef2f04732a6f30a3afa8df5e189349efc64736f6c63430008000033",
  "immutableReferences": {},
  "source": "// SPDX-License-Identifier: MIT\npragma solidity ^0.8.0;\n\ncontract HospitalRegistration {\n    struct Hospital {\n        uint id;\n        string name;\n        string location;\n        string coordinates;\n        string licenseNumber;\n    }\n\n    mapping(uint => Hospital) public hospitals;\n    uint[] public hospitalIds;\n    \n    event HospitalRegistered(uint id, string name, string location, string coordinates, string licenseNumber);\n    \n    function registerHospital(\n        uint _id, \n        string memory _name, \n        string memory _location, \n        string memory _coordinates, \n        string memory _licenseNumber\n    ) public {\n        require(bytes(hospitals[_id].name).length == 0, \"Hospital already registered.\");\n        \n        hospitals[_id] = Hospital(_id, _name, _location, _coordinates, _licenseNumber);\n        hospitalIds.push(_id);\n        \n        emit HospitalRegistered(_id, _name, _location, _coordinates, _licenseNumber);\n    }\n\n    function getHospital(uint _id) public view returns (Hospital memory) {\n        return hospitals[_id];\n    }\n\n    // New function to get all hospitals\n    function getAllHospitals() public view returns (\n        uint[] memory,\n        string[] memory,\n        string[] memory,\n        string[] memory,\n        string[] memory\n    ) {\n        uint totalHospitals = hospitalIds.length;\n        string[] memory names = new string[](totalHospitals);\n        string[] memory locations = new string[](totalHospitals);\n        string[] memory coordinates = new string[](totalHospitals);\n        string[] memory licenseNumbers = new string[](totalHospitals);\n\n        for (uint i = 0; i < totalHospitals; i++) {\n            uint id = hospitalIds[i];\n            Hospital memory hospital = hospitals[id];\n            names[i] = hospital.name;\n            locations[i] = hospital.location;\n            coordinates[i] = hospital.coordinates;\n            licenseNumbers[i] = hospital.licenseNumber;\n        }\n\n        return (hospitalIds, names, locations, coordinates, licenseNumbers);\n    }\n}\n",
  "sourcePath": "/run/media/vedansh/nvme0n1p5/sih-hackathon/contracts/HospitalRegistration.sol",
  "compiler": {
    "name": "solc",
    "version": "0.8.0+commit.c7dfd78e.Emscripten.clang"
  },
  "schemaVersion": "3.4.16",
  "updatedAt": "2024-09-08T20:38:09.970Z",
  "networkType": "ethereum",
  "devdoc": {
    "kind": "dev",
    "methods": {},
    "version": 1
  },
  "userdoc": {
    "kind": "user",
    "methods": {},
    "version": 1
  }
}