{
  "contractName": "NumberStorage",
  "abi": [
    {
      "inputs": [
        {
          "internalType": "uint256",
          "name": "_number",
          "type": "uint256"
        }
      ],
      "name": "setNumber",
      "outputs": [],
      "stateMutability": "nonpayable",
      "type": "function"
    },
    {
      "inputs": [],
      "name": "getNumber",
      "outputs": [
        {
          "internalType": "uint256",
          "name": "",
          "type": "uint256"
        }
      ],
      "stateMutability": "view",
      "type": "function"
    }
  ],
  "bytecode": "0x608060405234801561001057600080fd5b5060c38061001f6000396000f3fe6080604052348015600f57600080fd5b506004361060325760003560e01c80633fb5c1cb146037578063f2c9ecd8146048575b600080fd5b60466042366004606d565b6062565b005b604e6067565b604051605991906084565b60405180910390f35b600055565b60005490565b600060208284031215607d578081fd5b5035919050565b9081526020019056fea2646970667358221220c44b07770d7f41270ab499855851debe6c70455433b3e43560788bff95dd418064736f6c63430008000033",
  "immutableReferences": {},
  "source": "// SPDX-License-Identifier: MIT\r\npragma solidity ^0.8.0;\r\n\r\ncontract NumberStorage {\r\n    uint256 private storedNumber;\r\n\r\n    // Function to store a number\r\n    function setNumber(uint256 _number) public {\r\n        storedNumber = _number;\r\n    }\r\n\r\n    // Function to retrieve the stored number\r\n    function getNumber() public view returns (uint256) {\r\n        return storedNumber;\r\n    }\r\n}\r\n",
  "sourcePath": "F:\\Python\\sih-hackathon\\contracts\\NumberStorage.sol",
  "compiler": {
    "name": "solc",
    "version": "0.8.0+commit.c7dfd78e.Emscripten.clang"
  },
  "schemaVersion": "3.4.16",
  "updatedAt": "2024-09-08T19:46:23.383Z",
  "devdoc": {
    "kind": "dev",
    "methods": {},
    "version": 1
  },
  "userdoc": {
    "kind": "user",
    "methods": {},
    "version": 1
  }
}